:020000040800F2
:10000000700600202D080008350800083708000891
:10001000390800083B0800083D08000800000000FF
:100020000000000000000000000000003F08000881
:10003000410800080000000043080008B50100085E
:100040004708000847080008470800084708000854
:100050004708000847080008470800084708000844
:100060004708000847080008470800084708000834
:100070004708000847080008470800084708000824
:100080004708000847080008470800084708000814
:100090004708000847080008470800084708000804
:1000A00047080008470800084708000847080008F4
:1000B00047080008470800084708000847080008E4
:1000C00047080008470800084708000847080008D4
:1000D00047080008470800084708000847080008C4
:1000E00047080008470800084708000800F002F821
:1000F00000F050F814A696E8000CB244B344DA4578
:1001000001D100F047F8BAE80F000FA696E83000DA
:10011000A5EB040504EB0607AAEB0704A7F101070A
:100120004FEA15154FEA3414A4F10104AC4201D38F
:1001300000F030F813F0010F18BFFB1A43F0010371
:1001400000F001F8DBE718474C0900006C090000DB
:10015000103A24BF78C878C1FAD8520724BF30C8F3
:1001600030C144BF04680C60704700007047000055
:100170000023002400250026103A28BF78C1FBD8B0
:10018000520728BF30C148BF0B6070471FB51FBD65
:1001900010B510BD00F024FC1146FFF7F7FF00F08A
:1001A0001DF800F042FC03B4FFF7F2FF03BC00F0BF
:1001B00049FC000040F26C00C2F20000016801310D
:1001C0000160704740F26C01C2F200010A6800BF92
:1001D0000B689B1A8342FBD3704700BF40F20000BC
:1001E000C2F20000006844F6D351C1F26201A0FBE4
:1001F00001014FF0FF3000EB9110B0F1807F3DD254
:100200004EF21001CEF2000148604EF62350CEF2BD
:100210000000F022027000208860072040F60004F1
:10022000086004200121C4F2010400F0A3FA40F2A6
:1002300068010220C2F20001C1F20200086004F568
:10024000006000F043F840F26C05C2F2000500BF08
:100250002046022100F0B4F8286800BF2968091A76
:10026000B1F57A7FFAD32046022100F0A7F828687A
:100270002968091AB1F57A7FFAD3E9E7FEE70000A9
:10028000A0F18040A0F584304FEAB020062888BF56
:10029000704710B540F65421C0F6000151F82040D7
:1002A0000121204600F07EFA20460021BDE81040E2
:1002B00000F078BA80B50120012100F073FA012026
:1002C0000021BDE8804000F06DBA00BFCA7802F09E
:1002D0000F0CD30644BF8B784CEA030C2DE9F04792
:1002E00009880B0625D082465AF8145B00F1100EDF
:1002F00000264FF001094FF00F08002706E000BF6D
:100300001C600137082F06F1040611D009FA07F422
:100310000C42F6D008FA06F325EA03030CFA06F5B8
:100320001D43282A5346EBD0482AEAD17346E7E713
:100330000560B1F5807F38BFBDE8F087436800F104
:10034000100E00F1140A082500264FF001094FF0A5
:100350000F0805E027600135102D06F1040610D0C6
:1003600009FA05F70F42F6D008FA06F4A3430CFA8F
:1003700006F42343282A5446ECD0482AEBD174468D
:10038000E8E74360BDE8F0874FF6FF71C0F2024135
:10039000016070478068084018BF0120704700BFA7
:1003A000806880B2704700BFC068084018BF012055
:1003B000704700BFC06880B2704700BF01617047DE
:1003C000416170471023002A08BF1423C1507047B1
:1003D000C160704701F5803282618161826181690B
:1003E0008069704740F2000CC4F2010CDCF8003068
:1003F0004FF680721A4041EA00101043CCF800001A
:10040000704700BF1C21C4F220210860704700BF64
:10041000B0B540F2040CC4F2010C0CF118031A46FA
:10042000B0F1FF3FC4BF0422C4F20102146800F41B
:100430004012B2F5401F1FFA80FE08D1DCF80050D0
:1004400024F0706225F07064CCF8004011E0C20224
:1004500006D46FF00F0202EA50420EFA02F204E0F4
:10046000C0F30342032505FA02F224EA020242F035
:1004700070626FF00F0404EA504400290EFA04F58C
:1004800018BF2A43B0F1FF3FC8BF63461A60B0BD32
:1004900010B50C2240F2080E02EA810201F0FC01C4
:1004A000C4F2010E4FF00F0C51F80E400CFA02F39B
:1004B00024EA030341F80E3051F80E3090401843FF
:1004C00041F80E0010BD00BFDC21C4F220210860FD
:1004D0007047000041F20000C4F2020001680022EF
:1004E00041F0010101604168CFF6FF021140416017
:1004F00001684FF6FF72CFF6F662114001600168A5
:1005000021F480210160416821F4FE0141604FF433
:100510001F018160704700BF41F20001C4F2020177
:100520000A68B0F5803F22F480320A600A6822F43B
:1005300080220A6005D0B0F5802F18BF70474FF4B5
:10054000A0200A6810430860704700BF81B041F2E4
:100550000000C4F202000021009100BF0168009A6F
:1005600001320092009AB2F5A06F02D011F400316E
:10057000F4D00068C0F3404001B07047420941F236
:100580000001012AC4F2020103D0022A14BF24315F
:100590002031096800F01F0021FA00F000F001008E
:1005A000704700BF41F20001C4F202010A6822F064
:1005B000F80242EAC0000860704700BF0021C4F2A0
:1005C00042210860704700BF41F20402C4F20202F7
:1005D0001368084323F47C1318431060704700BF6E
:1005E0006021C4F242210860704700BF41F204015B
:1005F000C4F202010A6822F0030210430860704747
:1006000041F20400C4F20200006800F00C007047E0
:1006100041F20401C4F202010A6822F0F002104320
:100620000860704741F20401C4F202010A6822F432
:10063000E06210430860704741F20401C4F2020115
:100640000A6822F4605242EAC0000860704700BFA6
:10065000002941F20901C4F202010A780CBF22EA22
:100660000000104308707047D821C4F2422108608E
:10067000704700BF41F20401C4F202010A6822F48B
:10068000404210430860704741F22001C4F2020169
:10069000002201280A700A7003D0042818BF70478E
:1006A00005200870704700BF40F28041C4F242212B
:1006B0000860704741F22001C4F202010A68104349
:1006C0000860704740F23C41C4F242210860704724
:1006D00010B541F20404C4F20204226802F00C02D4
:1006E000082A41F20022C0F27A0212D12368D4F81B
:1006F00000C0C3F3834E5FEACC330EF1020C02D587
:1007000023689B0303D540F60012C0F23D020CFBA8
:1007100002F20260226840F68423C2F30312C0F69C
:1007200000039A5C0168D14041602268C2F3022252
:100730009A5C21FA02F282602268C2F3C2229A5CB9
:1007400040F67023D140C1602268C0F60003C2F3B6
:1007500081329A5CB1FBF2F1016110BD002941F2D6
:100760001401C4F202010A680CBF22EA000010431F
:1007700008607047002941F21801C4F202010A68BA
:100780000CBF22EA0000104308607047002941F2C4
:100790001C01C4F202010A680CBF22EA00001043E7
:1007A00008607047002941F20C01C4F202010A6896
:1007B0000CBF22EA0000104308607047002941F294
:1007C0001001C4F202010A680CBF22EA00001043C3
:1007D0000860704740F24041C4F24221086070470F
:1007E0004C21C4F242210860704700BF41F207016A
:1007F000C4F202010870704741F22400C4F2020002
:10080000016841F080710160704700BF41F208014A
:10081000C4F202010968084018BF0120704700BFF8
:1008200041F20A01C4F2020108707047094880478A
:1008300009480047FEE7FEE7FEE7FEE7FEE7FEE7C2
:10084000FEE7FEE7FEE7FEE704480549054A064BDA
:10085000704700006D080008ED00000870000020DF
:1008600070060020700200207002002082B041F269
:100870000400C4F2020050F8041C002241F00101FF
:1008800040F8041C0168CFF6FF021140016050F8E7
:10089000041C4FF6FF72CFF6F662114040F8041CBC
:1008A00050F8041C21F4802140F8041C016821F454
:1008B000FE0101604FF41F01416000210191009190
:1008C00050F8041C41F4803140F8041C50F8041C1A
:1008D00001F400310091019901310191009919B998
:1008E0000199B1F5A06FF1D150F8041C890354BFF0
:1008F0000021012100910099012936D142F2000125
:10090000C4F202010A6842F010020A600A6822F08A
:1009100007020A600A6842F002020A600168016088
:1009200001680160016841F480610160016821F49F
:100930007C110160016841F4E811016050F8041C69
:1009400041F0807140F8041C50F8041C8901FBD56B
:10095000016821F003010160016841F002010160BA
:10096000016801F00C010829FAD14EF60850CEF2C8
:1009700000004FF00061016002B0704741F20400D6
:10098000C4F20200016801F00C01082941F20021C3
:10099000C0F27A010FD102680368C2F38342DB031D
:1009A00002F1020202D503689B0303D540F6001151
:1009B000C0F23D01514340F20002C2F20002116058
:1009C000006840F67421C0F30310C0F60001085C13
:1009D000116821FA00F01060704770477047704747
:1009E000754600F02BF8AE4605006946534620F0E8
:1009F0000700854618B020B5FFF726FFBDE8204068
:100A00004FF000064FF000074FF000084FF0000BCA
:100A1000AC46ACE8C009ACE8C009ACE8C009ACE839
:100A2000C00921F007018D46704710B50446AFF3A9
:100A300000802046BDE81040FFF7B5BB0048704776
:100A40000800002001491820ABBEFEE72600020086
:100A500070470000040000000800000010000000C3
:100A600020000000400000008000000000010000A5
:100A70000204060800000000000000000102030458
:100A80000607080900000000010203040102030434
:100A900006070809B80A0008000000200800000046
:100AA00050010008C00A0008080000206806000085
:100AB000700100080000000000A24A0400000000CD
:04000005080000ED02
:00000001FF
